:1000000036C05AC059C058C057C056C083C354C028
:1000100053C0DFC251C04CC326C34EC04DC04CC0FC
:100020004BC04AC049C00000000038003500320013
:1000300000000000370034003100000000003600EE
:100040003300300004040404040404040202020225
:10005000020203030303030301020408102040808B
:100060000102040810200102040810207606112461
:100070001FBECFE5D4E0DEBFCDBF10E0A0E6B0E00C
:10008000E6E5F0E102C005900D92AC38B107D9F772
:1000900021E0ACE8B0E001C01D92A534B207E1F761
:1000A00010E0C7E3D0E003C02197FE01B3D6C6330A
:1000B000D107D1F7A9D3CDC7A3CF8FB7F894E0E488
:1000C000F1E010821182128213829598C098AB9A47
:1000D000949A8FBF0895FC01538D448D252F30E0F5
:1000E000842F90E0821B930B541710F0CF96089545
:1000F00001970895FC01918D828D981761F0A28D72
:10010000AE0FBF2FB11D5D968C91928D9F5F9F7337
:10011000928F90E008958FEF9FEF0895FC01918DED
:10012000828D981731F0828DE80FF11D858D90E05A
:1001300008958FEF9FEF0895FC01918D228D892FF7
:1001400090E0805C9F4F821B91098F7399270895DF
:10015000FC01A48DA80FB92FB11DA35ABF4F2C913C
:10016000848D90E001968F739927848FA689B78933
:100170002C93A089B1898C9182748C93938D848DFA
:10018000981306C00288F389E02D80818F7D8083DB
:100190000895EF92FF920F931F93CF93DF93EC019B
:1001A00081E0888F9B8D8C8D981319C0E889F9891F
:1001B000808185FF14C09FB7F894EE89FF89608322
:1001C000E889F9898081827480839FBF81E090E013
:1001D000DF91CF911F910F91FF90EF900895F62E30
:1001E0000B8D10E00F5F1F4F0F731127E02E8C8DCA
:1001F0008E110BC00FB607FCFACFE889F989808110
:1002000085FFF5CFCE01A4DFF2CFEB8DEC0FFD2FF4
:10021000F11DE35AFF4FF0829FB7F8940B8FEA89E4
:10022000FB8980818062D0CFCF93DF93EC01888DF2
:100230008823B1F0AA89BB89E889F9898C9185FD69
:1002400003C0808186FD0CC00FB607FCF7CF8C91F0
:1002500085FFF2CF808185FFEDCFCE0179DFEACF38
:10026000DF91CF9108958CE890E066DF21E0892B43
:1002700009F420E0822F089580E090E0892B19F0A6
:10028000F2DF8111BDCE08953FB7F89480913C0113
:1002900090913D01A0913E01B0913F0122B708B677
:1002A00000FE05C02F3F19F00196A11DB11D3FBFF3
:1002B000BA2FA92F982F8827BC01CD01620F711D7D
:1002C000811D911D42E0660F771F881F991F4A9577
:1002D000D1F708958F929F92AF92BF92CF92DF9203
:1002E000EF92FF924B015C01CFDF6B017C01CCDF11
:1002F0006C197D098E099F09683E7340810591053F
:10030000B0F321E0821A9108A108B10888EEC80E66
:1003100083E0D81EE11CF11C81149104A104B104F6
:1003200031F7FF90EF90DF90CF90BF90AF909F900C
:100330008F9008952FB7F89460913801709139012A
:1003400080913A0190913B012FBF0895AF92BF92E7
:10035000CF92DF92EF92FF920F931F93CF93DF9391
:100360006C017B018B01040F151FEB015E01AE18C0
:10037000BF08C017D10759F06991D601ED91FC91E2
:100380000190F081E02DC6010995892B79F7C5010F
:10039000DF91CF911F910F91FF90EF90DF90CF9061
:1003A000BF90AF900895582F492F81382FEF9207B3
:1003B00014F451E84FEF252F342F2038310514F075
:1003C0002FE730E0A901475F5F4F43315105E0F16E
:1003D00018161906D4F4032E000C440B550B2A50A2
:1003E000310941095109AFE7B0E0DCD425E730E03D
:1003F00040E050E0BBD420934001109241018FE7D0
:1004000080934201109243010895892BE9F01092E4
:100410004001319521953109032E000C440B550BF9
:100420002A50310941095109AFE7B0E0BBD425E7B3
:1004300030E040E050E09AD4209341011092420114
:100440008FE780934301089510924001109241017B
:1004500010924201D7CFEF92FF920F931F93CF9349
:10046000DF937C01D0E0C0E003EE13E08DE590E087
:100470009ADFC8010197F1F783EA9FEF94DFC80183
:100480000197F1F72196EC16FD0681F790E080E0E8
:100490008ADF64E670E080E090E0DF91CF911F9109
:1004A0000F91FF90EF9016CF0F931F93EAE5F0E0C6
:1004B0006491E6E4F0E0E491F0E0EE0FFF1FE65C0B
:1004C000FF4F8591949108EA11E620E030E0462F35
:1004D00056D1611571058105910529F06F5F7F4F38
:1004E0008F4F9F4F9F701F910F91089532C4CF92ED
:1004F000DF92EF92FF92CF93DF93EC016A017B01D1
:10050000642FF4DF9927F7FC9A958F2D7E2D6D2DA2
:10051000CE010196EBDFB701992777FD9095892FE2
:10052000CE010296E3DF6F2D772788279927CE012A
:100530000396DF91CF91FF90EF90DF90CF90D6CFD1
:1005400000C48F929F92AF92BF92CF92DF92EF92B0
:10055000FF920F931F93CF934B01CB01F1DF182F25
:10056000C4010196EDDFC82FC4010296E9DFC82E51
:10057000C4010396E5DF082F6C2F70E090E080E067
:10058000982F872F762F6627610F711D811D911D72
:10059000D12CF12CE12C7601DD24CC246C0D7D1DB9
:1005A0008E1D9F1D10E030E020E0302F2227112704
:1005B0000027600F711F821F931FCF911F910F9112
:1005C000FF90EF90DF90CF90BF90AF909F908F9073
:1005D00008951F920F920FB60F9211242F933F93FD
:1005E0008F939F93AF93BF9380913801909139017E
:1005F000A0913A01B0913B013091370123E0230FE4
:100600002D3758F50196A11DB11D20933701809318
:10061000380190933901A0933A01B0933B01809146
:100620003C0190913D01A0913E01B0913F010196A6
:10063000A11DB11D80933C0190933D01A0933E010B
:10064000B0933F01BF91AF919F918F913F912F91B7
:100650000F900FBE0F901F90189526E8230F02965B
:10066000A11DB11DD2CF1F920F920FB60F92112470
:100670002F933F934F935F936F937F938F939F93AA
:10068000AF93BF93EF93FF938CE890E061DDFF9110
:10069000EF91BF91AF919F918F917F916F915F91FA
:1006A0004F913F912F910F900FBE0F901F90189573
:1006B0001F920F920FB60F9211242F938F939F9337
:1006C000EF93FF93E0919C00F0919D008081E09179
:1006D000A200F091A30082FD1BC090818091A50033
:1006E0008F5F8F732091A600821741F0E091A500E3
:1006F000F0E0E457FF4F958F8093A500FF91EF91B5
:100700009F918F912F910F900FBE0F901F90189572
:100710008081F4CF1F920F920FB60F9211248F9306
:100720009F93789480914401909143018917E0F45C
:10073000959A909142018917C8F4C09A909141010D
:100740008917B0F0AB9A90914001891798F0949A6C
:100750008F5F8E3789F0809344019F918F910F9026
:100760000FBE0F901F9018959598E3CFC098E6CFD5
:10077000AB98E9CF9498ECCF10924401EECFCF9292
:10078000DF92EF92FF920F931F93E82FF92F05C08E
:10079000015011092109310961F1908196239417C3
:1007A000B9F305C0015011092109310911F19081F6
:1007B00096239413F7CFC12CD12CE12CF12C0AC035
:1007C0008FEFC81AD80AE80AF80A0C151D052E057D
:1007D0003F0579F080818623841791F36C2D7D2D60
:1007E0008E2D9F2D1F910F91FF90EF90DF90CF9056
:1007F000089560E070E080E090E01F910F91FF901D
:10080000EF90DF90CF900895789483B7826083BF94
:1008100083B7816083BF89B7816089BF1EBC8EB5F5
:1008200082608EBD8EB581608EBD8FB581608FBDBB
:1008300085B5846085BD85B5806485BD329A319A61
:10084000309A379A1AB8EAE5F0E02491E6E4F0E04D
:1008500084918823C1F090E0880F991FFC01E05D2E
:10086000FF4FC591D491FC01EA5DFF4FA591B49172
:100870009FB7F8948881E22FE0958E2388838C912E
:10088000E823EC939FBF19DC8FB7F8948D9AB89A40
:10089000A39A8C9A8FBF1FBC89E08EBD8EE790E033
:1008A0009BBD8ABD89B7806189BF1092440105DC78
:1008B00082E390E0D0DD82E390E0CDDD60ED77E093
:1008C00080E090E007DDF0DD672B682B692BB9F441
:1008D00068EB7BE080E090E0FDDC82E390E0BBDD54
:1008E0004EE050E069E770E08CE890E02FDD42E0F8
:1008F00050E068E870E08CE890E028DDE4CF88E222
:1009000090E01EDE8F3F91F460E288E290E0EEDD41
:100910004DEB51E060E070E080E390E0E8DD40E224
:1009200053E060E070E080E290E0E1DDBDDD6B016E
:100930007C01C0923301D0923401E0923501F092F3
:10094000360160E370E080E090E0FBDD16161706EC
:100950001806190624F4709362006093610060E247
:1009600070E080E090E0EDDD209161003091620068
:100970004901330FAA08BB0886169706A806B906D0
:1009800024F47093640060936300C701B6014AD2F7
:100990006B017C016091630070916400072E000C74
:1009A000880B990B3FD226E636E646E65FE379D21E
:1009B0009B01AC01C701B60170D218160CF0B6C08D
:1009C00084E690E048DD84E690E045DD84E690E052
:1009D00042DDB0DC60932F017093300180933101D0
:1009E00090933201C12CD12C7601A4DC80902F0190
:1009F00090903001A0903101B090320168197909CE
:100A00008A099B09603D774081059105E0F44CDD42
:100A10004B015C018092330190923401A092350128
:100A2000B0923601C814D904EA04FB04F4F682DC5F
:100A300060932F01709330018093310190933201C4
:100A400075016401D2CF88EC90E005DD73DC609322
:100A50002F0170933001809331019093320180E136
:100A6000882E87E2982EA12CB12C64DC40902F01B7
:100A70005090300160903101709032016419750915
:100A800086099709603D774081059105E0F40CDD0A
:100A90002B013C01409233015092340160923501A8
:100AA00070923601481459046A047B04F4F642DC5F
:100AB00060932F0170933001809331019093320144
:100AC00053014201D2CFD701C60188199909AA0959
:100AD000BB094497A105B10574F484EF91E0BBDC38
:100AE00068EE73E080E090E0F5DB64EF71E080E0B9
:100AF00090E0F0DB65CF82E390E0ADDC84E690E04F
:100B0000AADC82E390E0A7DC84E690E0A4DCB501F7
:100B1000A40180E390E0EBDCB701A60180E290E065
:100B2000E6DC68EE73E080E090E0D4DB90E080E00B
:100B30003ADC60E370E080E090E003DD70936200F7
:100B40006093610060E270E080E090E0FADC709316
:100B5000640060936300C0E0D0E0A6DC6B017C0120
:100B6000C0923301D0923401E0923501F092360107
:100B70008091650090916600092E000CAA0BBB0BBA
:100B8000C816D906EA06FB0669F0D0926600C09244
:100B90006500D0DB60932F017093300180933101A9
:100BA00090933201C7DB80902F0190903001A0908C
:100BB0003101B0903201681979098A099B09613DB8
:100BC00077408105910520F5C114D104E104F104B9
:100BD000F9F0D0922E01C0922D0140912B0150913D
:100BE0002C018091290190912A0190932C018093EE
:100BF0002B01D0922A01C09229018C159D057CF50C
:100C00004C155D0594F590932E0180932D012DC018
:100C100091DB603D77408105910580F481ED881678
:100C200087E09806A104B1044CF084DB60932F01A7
:100C300070933001809331019093320190E080E015
:100C4000B2DB6AE070E080E090E044DB209709F4DA
:100C500084CF09DB882309F480CFD2D97ECFC41694
:100C6000D5061CF4C816D90674F2C0906100D09065
:100C700062000D2C000CEE08FF0820912D01309130
:100C80002E01032E000C440B550B2C193D094E0967
:100C90005F09AEEFB0E086D0209163003091640030
:100CA000032E000C440B550B2C193D094E095F090E
:100CB0005DD0DA01C9018F579109A109B10990935B
:100CC0002E0180932D0120916000222309F4B8CFDA
:100CD0000996439710F41092600062E370E080E0A0
:100CE00090E0F8DA8AE090E0B6DBABCFECE8F0E039
:100CF0001382128288EE93E0A0E0B0E084839583B3
:100D0000A683B7838BE690E09183808380E490E0B4
:100D10009587848729E230E0378726872BE230E009
:100D2000318B208B2AE230E0338B228B958B848BA6
:100D30008CE290E0978B868B118E128E138E148E20
:100D40000895E199FECF9FBB8EBBE09A99278DB3A2
:100D50000895262FE199FECF9FBB8EBB2DBB0FB60A
:100D6000F894E29AE19A0FBE01960895052E97FB3A
:100D700016F400940FD057FD05D01ED007FC02D00A
:100D800046F408C050954095309521953F4F4F4F00
:100D90005F4F089590958095709561957F4F8F4F27
:100DA0009F4F08952BD0A59F900DB49F900DA49FA9
:100DB000800D911D11240895A1E21A2EAA1BBB1BC0
:100DC000FD010DC0AA1FBB1FEE1FFF1FA217B30717
:100DD000E407F50720F0A21BB30BE40BF50B661F2D
:100DE000771F881F991F1A9469F7609570958095F1
:100DF00090959B01AC01BD01CF010895A29FB00168
:100E0000B39FC001A39F01D0B29F700D811D11241B
:100E1000911D0895EE0FFF1F0590F491E02D0994A8
:100E2000E89409C097FB3EF4909580957095619584
:100E30007F4F8F4F9F4F9923A9F0F92F96E9BB273A
:100E40009395F695879577956795B795F111F8CFB6
:100E5000FAF4BB0F11F460FF1BC06F5F7F4F8F4F21
:100E60009F4F16C0882311F096E911C0772321F017
:100E70009EE8872F762F05C0662371F096E8862FAF
:100E800070E060E02AF09A95660F771F881FDAF706
:100E9000880F9695879597F9089566D008F48FEF97
:100EA00008950BD09CC08DD028F092D018F09523D7
:100EB00009F07EC083C01124C6C0A2D0A0F3959FC4
:100EC000D1F3950F50E0551F629FF001729FBB2731
:100ED000F00DB11D639FAA27F00DB11DAA1F649FDD
:100EE0006627B00DA11D661F829F2227B00DA11D90
:100EF000621F739FB00DA11D621F839FA00D611D16
:100F0000221F749F3327A00D611D231F849F600D36
:100F1000211D822F762F6A2F11249F5750408AF06F
:100F2000E1F088234AF0EE0FFF1FBB1F661F771FFB
:100F3000881F91505040A9F79E3F510570F038C06E
:100F400082C05F3FECF3983EDCF38695779567951A
:100F5000B795F795E7959F5FC1F7FE2B880F911D19
:100F60009695879597F90895990F0008550FAA0B44
:100F7000E0E8FEEF16161706E807F907C0F01216AC
:100F80001306E407F50798F0621B730B840B950BAF
:100F900039F40A2661F0232B242B252B21F4089504
:100FA0000A2609F4A140A6958FEF811D811D0895A1
:100FB00097F99F6780E870E060E008959FEF80EC0C
:100FC000089500240A9416161706180609060895AF
:100FD00000240A9412161306140605060895092E15
:100FE0000394000C11F4882352F0BB0F40F4BF2B84
:100FF00011F460FF04C06F5F7F4F8F4F9F4F0895C4
:1010000057FD9058440F551F59F05F3F71F04795B9
:10101000880F97FB991F61F09F3F79F0879508959E
:10102000121613061406551FF2CF4695F1DF08C0BD
:10103000161617061806991FF1CF869571056105DA
:1010400008940895E894BB2766277727CB0197F982
:061050000895F894FFCFA3
:1010560001BD012003640000000000C900A6016B69
:101066000014019C007A008E004E6F2050756C7340
:0C1076006520466F756E64000D0A0000D6
:00000001FF
